:1000000000308A00EF2B0000FF00030E8301A100E7
:100010007F08A0000A08A8008A01A00E0408A20018
:100020007708A3007808A4007908A5007A08A6003C
:100030007B08A700831383120B1E20288B183928F6
:100040008C308400801D26288C193B2822088400CF
:100050002308F7002408F8002508F9002608FA000C
:100060002708FB0028088A00210E8300FF0E7F0E60
:1000700009008A115F2B8A11272A0A108A100A1197
:10008000820769346E347434203425347534253451
:1000900063342534633400340A108A100A1182074D
:1000A00073347434613474346534313425346334D6
:1000B0002534633400340A108A100A11820773341D
:1000C0007434613474346534323425346334253403
:1000D000633400340A108A100A11820773347434AE
:1000E00061347434653433342534633425346334F3
:1000F00000340A108A100A11820773347434613490
:100100007434653434342534633425346334003432
:100110000A108A100A1182077334743461347434FB
:1001200065343534253463342534633400340A109F
:100130008A100A118207733474346134743465345C
:100140005F347834253463342534633400340A1042
:100150008A100A118207523465347334743461345E
:1001600072347434203463346134753473346534D8
:100170002034773461347334203457346134743428
:100180006334683464346F346734203466347234D2
:100190006F346D34203473346C34653465347034AA
:1001A000253463342534633400340A108A100A116C
:1001B0008207523465347334743461347234743465
:1001C00020346334613475347334653420347734C7
:1001D0006134733420345734613474346334683494
:1001E00064346F3467342034743469346D34653466
:1001F0006F347534743425346334253463340034F7
:100200000A148A100A118207523465347334743424
:10021000613472347434203463346134753473342B
:100220006534203477346134733420346D34613470
:100230007334743465347234203463346C3465340C
:10024000613472342034663472346F346D34203447
:1002500073346C3465346534703425346334253438
:10026000633400340A148A100A1182075234653448
:1002700073347434613472347434203463346134CC
:1002800075347334653420347734613473342034F6
:100290006E346F3472346D3461346C3420347034A5
:1002A0006F34773465347234753470342534633484
:1002B0002534633400340A148A100A118207523438
:1002C0006534733474346134723474342034633478
:1002D0006134753473346534203477346134733465
:1002E00020346F34743468346534723420342534E7
:1002F0007534253463342534633400340A148A1089
:100300000A11820745346E3463346F3464346534C3
:10031000723420342534303435346C34753425341B
:10032000633425346334003483162B08F8012A0221
:1003300003189D292A08F700A929F7010830AC0005
:10034000AA0DF70D2B0877020318F700F80DAC0B78
:10035000A0298312003483162913A9122808AA00A1
:100360006430AB00831294217808031DDE298316C4
:10037000A91EBC298312DE29A919F429291BC62923
:100380002918C6292919C629A91BF429291CD229EB
:10039000A91BF429291BD2292918F4292919D229A2
:1003A000A91BF4292030291E303083120C1ADA29B7
:1003B0008316D52999008316F42983128316A9166A
:1003C000A91FEB292D3083120C1AE8298316E32983
:1003D00099008316A9133030780783120C1AF2297A
:1003E0008316ED2999008316291B022A7708AA0093
:1003F0000A30AB00831294217808831629178312E0
:10040000B4298316A91F0C2A2D3083120C1A0A2A2C
:100410008316052A990083163030770783120C1A49
:10042000132A83160E2A990000348316141C1A2AE4
:100430008312152A831294138316280883129300BB
:10044000941F242A83161A2A941A141600348C1125
:100450007408303C03195C2B831614082D39F40002
:10046000A701270883123D208316A70AF7008312ED
:100470000C1A3C2A8316372A990004308316270267
:10048000031D312A7408A8001830A9008312AB217B
:100490000B300C1E492A99000D300C1E4D2A990074
:1004A0007408093A0319612A203A0319892A243A5F
:1004B0000319BE2A213A0319EE2A043A03191C2B08
:1004C0003B2B1308F500B9010130F300141B141382
:1004D000941A14168316A701270883124C2083163A
:1004E000A70AF70083120C1A772A8316722A99003A
:1004F000063083162702031D6C2A0B3083120C1A58
:10050000832A83167E2A99000D300C1E852A9900B5
:100510005C2B1308F500730B922A7508B9000230A2
:10052000F3009D2A2A303907840083137508800060
:10053000B90A39080D3C031CB901941A1416831624
:10054000A701270883125B208316A70AF7008312EE
:100550000C1AAC2A8316A72A9900063083162702A4
:10056000031DA12A0B3083120C1AB82A8316B32A52
:1005700099000D300C1EBA2A99005C2B1308F50067
:1005800039080D3C031CB9012A3039078400831354
:1005900000088316A700A80083121522B90A831643
:1005A000A701270883126A208316A70AF70083127F
:1005B0000C1ADC2A8316D72A9900063083162702E4
:1005C000031DD12A0B3083120C1AE82A8316E32A62
:1005D00099000D300C1EEA2A99005C2B39080D3C5D
:1005E000031CB9012A3039078400831300088316DD
:1005F000A700A80083121522B90A8316A7012708AD
:10060000831279208316A70AF70083120C1A0A2B8B
:100610008316052B9900063083162702031DFF2A37
:100620000B3083120C1A162B8316112B99000D30E8
:100630000C1E182B99005C2B8316A7012708831228
:1006400088208316A70AF70083120C1A292B831619
:10065000242B9900063083162702031D1E2B0B3016
:1006600083120C1A352B8316302B99000D300C1E7B
:10067000372B99005C2B941A14168316A7012708B0
:10068000831297208316A70AF70083120C1A4A2BAD
:100690008316452B9900073083162702031D3F2B35
:1006A0000B3083120C1A562B8316512B99000D30E8
:1006B0000C1E582B99005C2B8C118A11262883164E
:1006C00086158312861D682BAE0A0319AF0A6C2BA0
:1006D0002E080319AF03AE038B108A1126287D3034
:1006E0008400831300080319872B0230F800BF3001
:1006F000F7006400F70B792BF80B772B9630F70097
:10070000F70B802B000000006400800B752B8A1112
:10071000152D8316A6010408A5002610831B261498
:100720007E0EF038A100A107E23EA200323EA400F6
:100730007E080F39A207A207A407E93EA300A3077A
:10074000A3077D0E0F39A307A407A30DA40DA409C9
:10075000A40D7D080F39A407A10D0730A0000A30B1
:10076000A407A303031CB02BA307A203031CB42BF1
:10077000A207A103031CB82BA107A003031CBC2BD9
:10078000A03084008313073025058407A4300402B9
:100790000319E22B0008F700031DD42B251AE02BC8
:1007A000A519D62B2030D72B0830A5003030F707FD
:1007B000770883120C1ADE2B8316D92B9900831627
:1007C000840AC62B0008F7003030F7077708831239
:1007D0000C1AEC2B8316E72B99008A112B2D840120
:1007E00083131F30830583161F129F121B08803945
:1007F0009B0007309C00050864001C0883120D1341
:10080000703083168F0006168614503093003630F1
:10081000831294000C308316990022309800903097
:1008200083129800B8010F30AA00AB01AC01AD01F2
:10083000C530AE002030AF00B901BA01BB01BC0128
:10084000BD01F001F1017210F301F6018B12831664
:100850000C108C100C1183120B1283160C138C12BB
:100860000C128C1183120B138B138B1B342C233023
:1008700065003F306600831681130108C0390638D1
:100880008100B530831290002030F80006389200C5
:10089000FA30831692000F30F7000730831281017F
:1008A0008130840083130008F03907388000640029
:1008B0000008F739F719F0397704800064008316CF
:1008C0001F1383121F179F1783169F1783121F145E
:1008D00083161F129F121B0880399B0083120B1670
:1008E000C0308B04163094003D30660083168610AD
:1008F00083128614363094003F30660083168C15C0
:1009000003081839003A83120319902C083A031986
:10091000A62C183A0319BC2C083A0319D22CE82C3F
:10092000FC017C08A720FC0AF70077080C1E962C17
:10093000990025307C02031D912C0B300C1E9E2C3F
:1009400099000D300C1EA22C99000E2DFC017C0884
:10095000D520FC0AF70077080C1EAC2C9900223039
:100960007C02031DA72C0B300C1EB42C99000D30FB
:100970000C1EB82C99000E2DFC017C080021FC0AED
:10098000F70077080C1EC22C990029307C02031D49
:10099000BD2C0B300C1ECA2C99000D300C1ECE2C19
:1009A00099000E2DFC017C083221FC0AF700770823
:1009B0000C1ED82C990020307C02031DD32C0B3048
:1009C0000C1EE02C99000D300C1EE42C99000E2D0D
:1009D00003081839FC00FD017D085B21FD0AF700C2
:1009E00077080C1EF12C990018307D02031DEC2CA9
:1009F000A9018B1BA9178B137C088316A80018303C
:100A0000A9008312AB21A91B8B170B300C1E062DDE
:100A100099000D300C1E0A2D99000E2D6400AC0AB1
:100A20000230FC00FA30FD006F2BFC0B122DFC0194
:100A30007C087E21FC0AF70077080C1E1D2D99000A
:100A400008307C02031D182D083084002F08FE009A
:100A50002E08FD00892B0B300C1E2C2D99000D301B
:0A0A60000C1E302D99000E2D6300CE
:04400E00743FFF3FBD
:00000001FF
;PIC16F88
